{
  "_format": "hh-sol-artifact-1",
  "contractName": "TriviaGame",
  "sourceName": "contracts/TriviaGame.sol",
  "abi": [
    {
      "inputs": [
        {
          "internalType": "address",
          "name": "_tokenAddress",
          "type": "address"
        }
      ],
      "stateMutability": "nonpayable",
      "type": "constructor"
    },
    {
      "inputs": [
        {
          "internalType": "address",
          "name": "owner",
          "type": "address"
        }
      ],
      "name": "OwnableInvalidOwner",
      "type": "error"
    },
    {
      "inputs": [
        {
          "internalType": "address",
          "name": "account",
          "type": "address"
        }
      ],
      "name": "OwnableUnauthorizedAccount",
      "type": "error"
    },
    {
      "anonymous": false,
      "inputs": [
        {
          "indexed": true,
          "internalType": "address",
          "name": "previousOwner",
          "type": "address"
        },
        {
          "indexed": true,
          "internalType": "address",
          "name": "newOwner",
          "type": "address"
        }
      ],
      "name": "OwnershipTransferred",
      "type": "event"
    },
    {
      "anonymous": false,
      "inputs": [
        {
          "indexed": true,
          "internalType": "address",
          "name": "user",
          "type": "address"
        },
        {
          "indexed": false,
          "internalType": "uint256",
          "name": "questionId",
          "type": "uint256"
        },
        {
          "indexed": false,
          "internalType": "uint256",
          "name": "amount",
          "type": "uint256"
        }
      ],
      "name": "RewardClaimed",
      "type": "event"
    },
    {
      "inputs": [
        {
          "internalType": "address",
          "name": "",
          "type": "address"
        },
        {
          "internalType": "uint256",
          "name": "",
          "type": "uint256"
        }
      ],
      "name": "hasAnswered",
      "outputs": [
        {
          "internalType": "bool",
          "name": "",
          "type": "bool"
        }
      ],
      "stateMutability": "view",
      "type": "function"
    },
    {
      "inputs": [],
      "name": "owner",
      "outputs": [
        {
          "internalType": "address",
          "name": "",
          "type": "address"
        }
      ],
      "stateMutability": "view",
      "type": "function"
    },
    {
      "inputs": [],
      "name": "renounceOwnership",
      "outputs": [],
      "stateMutability": "nonpayable",
      "type": "function"
    },
    {
      "inputs": [],
      "name": "rewardAmount",
      "outputs": [
        {
          "internalType": "uint256",
          "name": "",
          "type": "uint256"
        }
      ],
      "stateMutability": "view",
      "type": "function"
    },
    {
      "inputs": [
        {
          "internalType": "uint256",
          "name": "_amount",
          "type": "uint256"
        }
      ],
      "name": "setRewardAmount",
      "outputs": [],
      "stateMutability": "nonpayable",
      "type": "function"
    },
    {
      "inputs": [
        {
          "internalType": "uint256[]",
          "name": "questionIds",
          "type": "uint256[]"
        }
      ],
      "name": "submitBatchAnswers",
      "outputs": [],
      "stateMutability": "nonpayable",
      "type": "function"
    },
    {
      "inputs": [
        {
          "internalType": "uint256",
          "name": "questionId",
          "type": "uint256"
        }
      ],
      "name": "submitCorrectAnswer",
      "outputs": [],
      "stateMutability": "nonpayable",
      "type": "function"
    },
    {
      "inputs": [],
      "name": "token",
      "outputs": [
        {
          "internalType": "contract TriviaToken",
          "name": "",
          "type": "address"
        }
      ],
      "stateMutability": "view",
      "type": "function"
    },
    {
      "inputs": [
        {
          "internalType": "address",
          "name": "newOwner",
          "type": "address"
        }
      ],
      "name": "transferOwnership",
      "outputs": [],
      "stateMutability": "nonpayable",
      "type": "function"
    }
  ],
  "bytecode": "0x6080604052678ac7230489e800006002553480156200001d57600080fd5b5060405162000f4938038062000f49833981810160405281019062000043919062000241565b33600073ffffffffffffffffffffffffffffffffffffffff168173ffffffffffffffffffffffffffffffffffffffff1603620000b95760006040517f1e4fbdf7000000000000000000000000000000000000000000000000000000008152600401620000b0919062000284565b60405180910390fd5b620000ca816200011360201b60201c565b5080600160006101000a81548173ffffffffffffffffffffffffffffffffffffffff021916908373ffffffffffffffffffffffffffffffffffffffff16021790555050620002a1565b60008060009054906101000a900473ffffffffffffffffffffffffffffffffffffffff169050816000806101000a81548173ffffffffffffffffffffffffffffffffffffffff021916908373ffffffffffffffffffffffffffffffffffffffff1602179055508173ffffffffffffffffffffffffffffffffffffffff168173ffffffffffffffffffffffffffffffffffffffff167f8be0079c531659141344cd1fd0a4f28419497f9722a3daafe3b4186f6b6457e060405160405180910390a35050565b600080fd5b600073ffffffffffffffffffffffffffffffffffffffff82169050919050565b60006200020982620001dc565b9050919050565b6200021b81620001fc565b81146200022757600080fd5b50565b6000815190506200023b8162000210565b92915050565b6000602082840312156200025a5762000259620001d7565b5b60006200026a848285016200022a565b91505092915050565b6200027e81620001fc565b82525050565b60006020820190506200029b600083018462000273565b92915050565b610c9880620002b16000396000f3fe608060405234801561001057600080fd5b50600436106100925760003560e01c8063a8a65a7811610066578063a8a65a78146100f7578063bb6fe45a14610113578063f2fde38b14610143578063f7b2a7be1461015f578063fc0c546a1461017d57610092565b80627122e414610097578063674ffc2c146100b3578063715018a6146100cf5780638da5cb5b146100d9575b600080fd5b6100b160048036038101906100ac9190610853565b61019b565b005b6100cd60048036038101906100c891906108e5565b610388565b005b6100d7610590565b005b6100e16105a4565b6040516100ee9190610973565b60405180910390f35b610111600480360381019061010c9190610853565b6105cd565b005b61012d600480360381019061012891906109ba565b6105df565b60405161013a9190610a15565b60405180910390f35b61015d60048036038101906101589190610a30565b61060e565b005b610167610694565b6040516101749190610a6c565b60405180910390f35b61018561069a565b6040516101929190610ae6565b60405180910390f35b600360003373ffffffffffffffffffffffffffffffffffffffff1673ffffffffffffffffffffffffffffffffffffffff168152602001908152602001600020600082815260200190815260200160002060009054906101000a900460ff1615610239576040517f08c379a000000000000000000000000000000000000000000000000000000000815260040161023090610b5e565b60405180910390fd5b6001600360003373ffffffffffffffffffffffffffffffffffffffff1673ffffffffffffffffffffffffffffffffffffffff168152602001908152602001600020600083815260200190815260200160002060006101000a81548160ff021916908315150217905550600160009054906101000a900473ffffffffffffffffffffffffffffffffffffffff1673ffffffffffffffffffffffffffffffffffffffff166340c10f19336002546040518363ffffffff1660e01b8152600401610301929190610b7e565b600060405180830381600087803b15801561031b57600080fd5b505af115801561032f573d6000803e3d6000fd5b505050503373ffffffffffffffffffffffffffffffffffffffff167ff01da32686223933d8a18a391060918c7f11a3648639edd87ae013e2e27317438260025460405161037d929190610ba7565b60405180910390a250565b6000805b838390508110156104f15760008484838181106103ac576103ab610bd0565b5b905060200201359050600360003373ffffffffffffffffffffffffffffffffffffffff1673ffffffffffffffffffffffffffffffffffffffff168152602001908152602001600020600082815260200190815260200160002060009054906101000a900460ff166104e3576001600360003373ffffffffffffffffffffffffffffffffffffffff1673ffffffffffffffffffffffffffffffffffffffff168152602001908152602001600020600083815260200190815260200160002060006101000a81548160ff0219169083151502179055506002548361048e9190610c2e565b92503373ffffffffffffffffffffffffffffffffffffffff167ff01da32686223933d8a18a391060918c7f11a3648639edd87ae013e2e2731743826002546040516104da929190610ba7565b60405180910390a25b50808060010191505061038c565b50600081111561058b57600160009054906101000a900473ffffffffffffffffffffffffffffffffffffffff1673ffffffffffffffffffffffffffffffffffffffff166340c10f1933836040518363ffffffff1660e01b8152600401610558929190610b7e565b600060405180830381600087803b15801561057257600080fd5b505af1158015610586573d6000803e3d6000fd5b505050505b505050565b6105986106c0565b6105a26000610747565b565b60008060009054906101000a900473ffffffffffffffffffffffffffffffffffffffff16905090565b6105d56106c0565b8060028190555050565b60036020528160005260406000206020528060005260406000206000915091509054906101000a900460ff1681565b6106166106c0565b600073ffffffffffffffffffffffffffffffffffffffff168173ffffffffffffffffffffffffffffffffffffffff16036106885760006040517f1e4fbdf700000000000000000000000000000000000000000000000000000000815260040161067f9190610973565b60405180910390fd5b61069181610747565b50565b60025481565b600160009054906101000a900473ffffffffffffffffffffffffffffffffffffffff1681565b6106c861080b565b73ffffffffffffffffffffffffffffffffffffffff166106e66105a4565b73ffffffffffffffffffffffffffffffffffffffff16146107455761070961080b565b6040517f118cdaa700000000000000000000000000000000000000000000000000000000815260040161073c9190610973565b60405180910390fd5b565b60008060009054906101000a900473ffffffffffffffffffffffffffffffffffffffff169050816000806101000a81548173ffffffffffffffffffffffffffffffffffffffff021916908373ffffffffffffffffffffffffffffffffffffffff1602179055508173ffffffffffffffffffffffffffffffffffffffff168173ffffffffffffffffffffffffffffffffffffffff167f8be0079c531659141344cd1fd0a4f28419497f9722a3daafe3b4186f6b6457e060405160405180910390a35050565b600033905090565b600080fd5b600080fd5b6000819050919050565b6108308161081d565b811461083b57600080fd5b50565b60008135905061084d81610827565b92915050565b60006020828403121561086957610868610813565b5b60006108778482850161083e565b91505092915050565b600080fd5b600080fd5b600080fd5b60008083601f8401126108a5576108a4610880565b5b8235905067ffffffffffffffff8111156108c2576108c1610885565b5b6020830191508360208202830111156108de576108dd61088a565b5b9250929050565b600080602083850312156108fc576108fb610813565b5b600083013567ffffffffffffffff81111561091a57610919610818565b5b6109268582860161088f565b92509250509250929050565b600073ffffffffffffffffffffffffffffffffffffffff82169050919050565b600061095d82610932565b9050919050565b61096d81610952565b82525050565b60006020820190506109886000830184610964565b92915050565b61099781610952565b81146109a257600080fd5b50565b6000813590506109b48161098e565b92915050565b600080604083850312156109d1576109d0610813565b5b60006109df858286016109a5565b92505060206109f08582860161083e565b9150509250929050565b60008115159050919050565b610a0f816109fa565b82525050565b6000602082019050610a2a6000830184610a06565b92915050565b600060208284031215610a4657610a45610813565b5b6000610a54848285016109a5565b91505092915050565b610a668161081d565b82525050565b6000602082019050610a816000830184610a5d565b92915050565b6000819050919050565b6000610aac610aa7610aa284610932565b610a87565b610932565b9050919050565b6000610abe82610a91565b9050919050565b6000610ad082610ab3565b9050919050565b610ae081610ac5565b82525050565b6000602082019050610afb6000830184610ad7565b92915050565b600082825260208201905092915050565b7f416c726561647920616e7377657265642074686973207175657374696f6e0000600082015250565b6000610b48601e83610b01565b9150610b5382610b12565b602082019050919050565b60006020820190508181036000830152610b7781610b3b565b9050919050565b6000604082019050610b936000830185610964565b610ba06020830184610a5d565b9392505050565b6000604082019050610bbc6000830185610a5d565b610bc96020830184610a5d565b9392505050565b7f4e487b7100000000000000000000000000000000000000000000000000000000600052603260045260246000fd5b7f4e487b7100000000000000000000000000000000000000000000000000000000600052601160045260246000fd5b6000610c398261081d565b9150610c448361081d565b9250828201905080821115610c5c57610c5b610bff565b5b9291505056fea2646970667358221220b2d33eff337cbb89f7314e7ef12509c2e56d5d8ef5d62209c4d501ef8e5c343064736f6c63430008180033",
  "linkReferences": {},
  "deployedLinkReferences": {}
}